{
  "contractName": "ExpenseTracker",
  "abi": [
    {
      "inputs": [
        {
          "internalType": "uint256",
          "name": "",
          "type": "uint256"
        }
      ],
      "name": "transactions",
      "outputs": [
        {
          "internalType": "address",
          "name": "owner",
          "type": "address"
        },
        {
          "internalType": "string",
          "name": "description",
          "type": "string"
        },
        {
          "internalType": "int256",
          "name": "amount",
          "type": "int256"
        }
      ],
      "stateMutability": "view",
      "type": "function",
      "constant": true
    },
    {
      "inputs": [
        {
          "internalType": "string",
          "name": "description",
          "type": "string"
        },
        {
          "internalType": "int256",
          "name": "amount",
          "type": "int256"
        }
      ],
      "name": "addTransaction",
      "outputs": [],
      "stateMutability": "nonpayable",
      "type": "function"
    },
    {
      "inputs": [],
      "name": "getTransactionCount",
      "outputs": [
        {
          "internalType": "uint256",
          "name": "",
          "type": "uint256"
        }
      ],
      "stateMutability": "view",
      "type": "function",
      "constant": true
    }
  ],
  "bytecode": "0x608060405234801561001057600080fd5b50610509806100206000396000f3fe608060405234801561001057600080fd5b50600436106100415760003560e01c80632e7700f0146100465780639ace38c214610064578063b9d9b3f51461012f575b600080fd5b61004e6101f4565b6040518082815260200191505060405180910390f35b6100906004803603602081101561007a57600080fd5b8101908080359060200190929190505050610200565b604051808473ffffffffffffffffffffffffffffffffffffffff16815260200180602001838152602001828103825284818151815260200191508051906020019080838360005b838110156100f25780820151818401526020810190506100d7565b50505050905090810190601f16801561011f5780820380516001836020036101000a031916815260200191505b5094505050505060405180910390f35b6101f26004803603604081101561014557600080fd5b810190808035906020019064010000000081111561016257600080fd5b82018360208201111561017457600080fd5b8035906020019184600183028401116401000000008311171561019657600080fd5b91908080601f016020809104026020016040519081016040528093929190818152602001838380828437600081840152601f19601f820116905080830192505050505050509192919290803590602001909291905050506102ef565b005b60008080549050905090565b6000818154811061020d57fe5b90600052602060002090600302016000915090508060000160009054906101000a900473ffffffffffffffffffffffffffffffffffffffff1690806001018054600181600116156101000203166002900480601f0160208091040260200160405190810160405280929190818152602001828054600181600116156101000203166002900480156102df5780601f106102b4576101008083540402835291602001916102df565b820191906000526020600020905b8154815290600101906020018083116102c257829003601f168201915b5050505050908060020154905083565b6000811415610366576040517f08c379a000000000000000000000000000000000000000000000000000000000815260040180806020018281038252600f8152602001807f496e76616c696420616d6f756e7421000000000000000000000000000000000081525060200191505060405180910390fd5b600060405180606001604052803373ffffffffffffffffffffffffffffffffffffffff16815260200184815260200183815250908060018154018082558091505060019003906000526020600020906003020160009091909190915060008201518160000160006101000a81548173ffffffffffffffffffffffffffffffffffffffff021916908373ffffffffffffffffffffffffffffffffffffffff1602179055506020820151816001019080519060200190610425929190610436565b506040820151816002015550505050565b828054600181600116156101000203166002900490600052602060002090601f016020900481019282601f1061047757805160ff19168380011785556104a5565b828001600101855582156104a5579182015b828111156104a4578251825591602001919060010190610489565b5b5090506104b291906104b6565b5090565b5b808211156104cf5760008160009055506001016104b7565b509056fea2646970667358221220d2b61947cd0c00dc6c82d466be79f09c6a15d999b3f34e649a4953f1b643afc164736f6c63430007000033",
  "immutableReferences": {},
  "source": "// SPDX-License-Identifier: MIT\r\npragma solidity ^0.7.0;\r\n\r\ncontract ExpenseTracker{\r\n    \r\n    //mapping to hold balances against EOA accounts\r\n    struct Transaction{\r\n        address owner;\r\n        string description;\r\n        int256 amount;\r\n    }\r\n    \r\n    Transaction[] public transactions;\r\n    \r\n    function addTransaction(string memory description, int256 amount) public {\r\n        require(amount != 0,\"Invalid amount!\");\r\n        transactions.push(Transaction(msg.sender,description,amount));\r\n    }\r\n    \r\n    function getTransactionCount() public view returns(uint256){\r\n        return transactions.length;\r\n    }\r\n    \r\n}",
  "sourcePath": "D:/Education/Blockchain/learn-dapps/03-dapp-drizzle/contracts/ExpenseTracker.sol",
  "compiler": {
    "name": "solc",
    "version": "0.7.0+commit.9e61f92b.Emscripten.clang"
  },
  "schemaVersion": "3.3.3",
  "updatedAt": "2021-01-29T11:09:03.157Z",
  "networkType": "ethereum",
  "devdoc": {
    "kind": "dev",
    "methods": {},
    "version": 1
  },
  "userdoc": {
    "kind": "user",
    "methods": {},
    "version": 1
  }
}