{
  "contractName": "Adoption",
  "abi": [
    {
      "inputs": [
        {
          "internalType": "uint256",
          "name": "",
          "type": "uint256"
        }
      ],
      "name": "adopters",
      "outputs": [
        {
          "internalType": "address",
          "name": "",
          "type": "address"
        }
      ],
      "stateMutability": "view",
      "type": "function",
      "constant": true
    },
    {
      "inputs": [
        {
          "internalType": "uint256",
          "name": "petId",
          "type": "uint256"
        }
      ],
      "name": "adopt",
      "outputs": [
        {
          "internalType": "uint256",
          "name": "",
          "type": "uint256"
        }
      ],
      "stateMutability": "nonpayable",
      "type": "function"
    },
    {
      "inputs": [],
      "name": "getAdopters",
      "outputs": [
        {
          "internalType": "address[16]",
          "name": "",
          "type": "address[16]"
        }
      ],
      "stateMutability": "view",
      "type": "function",
      "constant": true
    }
  ],
  "bytecode": "0x608060405234801561001057600080fd5b50610315806100206000396000f3fe608060405234801561001057600080fd5b50600436106100415760003560e01c80633de4eb171461004657806343ae80d31461008c5780638588b2c5146100e4575b600080fd5b61004e610126565b6040518082601060200280838360005b8381101561007957808201518184015260208101905061005e565b5050505090500191505060405180910390f35b6100b8600480360360208110156100a257600080fd5b81019080803590602001909291905050506101a7565b604051808273ffffffffffffffffffffffffffffffffffffffff16815260200191505060405180910390f35b610110600480360360208110156100fa57600080fd5b81019080803590602001909291905050506101da565b6040518082815260200191505060405180910390f35b61012e610297565b600060108060200260405190810160405280929190826010801561019d576020028201915b8160009054906101000a900473ffffffffffffffffffffffffffffffffffffffff1673ffffffffffffffffffffffffffffffffffffffff1681526020019060010190808311610153575b5050505050905090565b600081601081106101b457fe5b016000915054906101000a900473ffffffffffffffffffffffffffffffffffffffff1681565b60008082101580156101ed5750600f8211155b610242576040517f08c379a00000000000000000000000000000000000000000000000000000000081526004018080602001828103825260258152602001806102bb6025913960400191505060405180910390fd5b336000836010811061025057fe5b0160006101000a81548173ffffffffffffffffffffffffffffffffffffffff021916908373ffffffffffffffffffffffffffffffffffffffff160217905550819050919050565b60405180610200016040528060109060208202803683378082019150509050509056fe5468652049642073686f756c64206265207a65726f206f72206c657373207468616e203135a2646970667358221220ba381fead0fa2c61d52b0a4e8612edb5ef46e980a8b0be2a79f55cc59320d9cc64736f6c63430007000033",
  "immutableReferences": {},
  "source": "pragma solidity ^0.7.0;\r\n\r\ncontract Adoption{\r\n\r\n    address[16] public adopters;\r\n    //Adopting a pet\r\n    function adopt(uint petId) public returns(uint){\r\n        require(petId >= 0 && petId <=15,\"The Id should be zero or less than 15\");\r\n        adopters[petId] = msg.sender;\r\n\r\n        return petId;\r\n    }\r\n\r\n    function getAdopters() public view returns(address[16] memory){\r\n        return adopters;\r\n    }\r\n}",
  "sourcePath": "D:/Education/Blockchain/learn-dapps/04-dapp-petshop-reduxtoolkit/contracts/Adoption.sol",
  "compiler": {
    "name": "solc",
    "version": "0.7.0+commit.9e61f92b.Emscripten.clang"
  },
  "schemaVersion": "3.3.3",
  "updatedAt": "2021-02-19T16:16:20.767Z",
  "networkType": "ethereum",
  "devdoc": {
    "kind": "dev",
    "methods": {},
    "version": 1
  },
  "userdoc": {
    "kind": "user",
    "methods": {},
    "version": 1
  }
}