{
  "contractName": "Adoption",
  "abi": [
    {
      "inputs": [
        {
          "internalType": "uint256",
          "name": "",
          "type": "uint256"
        }
      ],
      "name": "adopters",
      "outputs": [
        {
          "internalType": "address",
          "name": "",
          "type": "address"
        }
      ],
      "stateMutability": "view",
      "type": "function"
    },
    {
      "inputs": [
        {
          "internalType": "uint256",
          "name": "petId",
          "type": "uint256"
        }
      ],
      "name": "adopt",
      "outputs": [
        {
          "internalType": "uint256",
          "name": "",
          "type": "uint256"
        }
      ],
      "stateMutability": "nonpayable",
      "type": "function"
    },
    {
      "inputs": [],
      "name": "getAdopter",
      "outputs": [
        {
          "internalType": "address[16]",
          "name": "",
          "type": "address[16]"
        }
      ],
      "stateMutability": "view",
      "type": "function"
    }
  ],
  "bytecode": "0x608060405234801561001057600080fd5b506102a3806100206000396000f3fe608060405234801561001057600080fd5b50600436106100415760003560e01c806343ae80d314610046578063654486c81461009e5780638588b2c5146100e4575b600080fd5b6100726004803603602081101561005c57600080fd5b8101908080359060200190929190505050610126565b604051808273ffffffffffffffffffffffffffffffffffffffff16815260200191505060405180910390f35b6100a6610159565b6040518082601060200280838360005b838110156100d15780820151818401526020810190506100b6565b5050505090500191505060405180910390f35b610110600480360360208110156100fa57600080fd5b81019080803590602001909291905050506101da565b6040518082815260200191505060405180910390f35b6000816010811061013357fe5b016000915054906101000a900473ffffffffffffffffffffffffffffffffffffffff1681565b61016161024a565b60006010806020026040519081016040528092919082601080156101d0576020028201915b8160009054906101000a900473ffffffffffffffffffffffffffffffffffffffff1673ffffffffffffffffffffffffffffffffffffffff1681526020019060010190808311610186575b5050505050905090565b600080821180156101ec5750600f8211155b6101f557600080fd5b336000836010811061020357fe5b0160006101000a81548173ffffffffffffffffffffffffffffffffffffffff021916908373ffffffffffffffffffffffffffffffffffffffff160217905550819050919050565b60405180610200016040528060109060208202803683378082019150509050509056fea2646970667358221220e44360c7a9215b4f6ad28a90c560a273fef4a9c1dc5ef019c60968ac8a2feaed64736f6c63430007000033",
  "immutableReferences": {},
  "source": "pragma solidity ^0.7.0;\r\n\r\ncontract Adoption{\r\n\r\n    address[16] public adopters;\r\n    //Adopting a pet\r\n    function adopt(uint petId) public returns(uint){\r\n        require(petId > 0 && petId <=15);\r\n        adopters[petId] = msg.sender;\r\n\r\n        return petId;\r\n    }\r\n\r\n    function getAdopter() public view returns(address[16] memory){\r\n        return adopters;\r\n    }\r\n}",
  "sourcePath": "D:/Education/Blockchain/learn-dapps/04-dapp-petshop-reduxtoolkit/contracts/Adoption.sol",
  "compiler": {
    "name": "solc",
    "version": "0.7.0+commit.9e61f92b.Emscripten.clang"
  },
  "schemaVersion": "3.3.3",
  "updatedAt": "2021-02-17T12:58:01.923Z",
  "devdoc": {
    "kind": "dev",
    "methods": {},
    "version": 1
  },
  "userdoc": {
    "kind": "user",
    "methods": {},
    "version": 1
  }
}